{
  "_format": "hh-sol-artifact-1",
  "contractName": "Detasker",
  "sourceName": "contracts/Detasker.sol",
  "abi": [
    {
      "inputs": [
        {
          "internalType": "address",
          "name": "_owner",
          "type": "address"
        }
      ],
      "stateMutability": "nonpayable",
      "type": "constructor"
    },
    {
      "anonymous": false,
      "inputs": [
        {
          "indexed": true,
          "internalType": "address",
          "name": "owner",
          "type": "address"
        },
        {
          "indexed": true,
          "internalType": "address",
          "name": "spender",
          "type": "address"
        },
        {
          "indexed": false,
          "internalType": "uint256",
          "name": "value",
          "type": "uint256"
        }
      ],
      "name": "Approval",
      "type": "event"
    },
    {
      "anonymous": false,
      "inputs": [
        {
          "indexed": false,
          "internalType": "address",
          "name": "whoItFor",
          "type": "address"
        },
        {
          "indexed": false,
          "internalType": "address",
          "name": "whoCompletedIt",
          "type": "address"
        },
        {
          "indexed": false,
          "internalType": "uint256",
          "name": "forAmount",
          "type": "uint256"
        },
        {
          "indexed": false,
          "internalType": "bool",
          "name": "waitForConformation",
          "type": "bool"
        }
      ],
      "name": "CompletingJob",
      "type": "event"
    },
    {
      "anonymous": false,
      "inputs": [
        {
          "indexed": false,
          "internalType": "uint256",
          "name": "amount",
          "type": "uint256"
        },
        {
          "indexed": false,
          "internalType": "uint256",
          "name": "timestamp",
          "type": "uint256"
        }
      ],
      "name": "PaidForAJob",
      "type": "event"
    },
    {
      "anonymous": false,
      "inputs": [
        {
          "indexed": true,
          "internalType": "address",
          "name": "from",
          "type": "address"
        },
        {
          "indexed": true,
          "internalType": "address",
          "name": "to",
          "type": "address"
        },
        {
          "indexed": false,
          "internalType": "uint256",
          "name": "value",
          "type": "uint256"
        }
      ],
      "name": "Transfer",
      "type": "event"
    },
    {
      "inputs": [
        {
          "internalType": "address",
          "name": "_token",
          "type": "address"
        },
        {
          "internalType": "uint256",
          "name": "jobId",
          "type": "uint256"
        }
      ],
      "name": "Jobdeposit",
      "outputs": [],
      "stateMutability": "payable",
      "type": "function"
    },
    {
      "inputs": [
        {
          "internalType": "address",
          "name": "_address",
          "type": "address"
        },
        {
          "internalType": "address",
          "name": "_token",
          "type": "address"
        }
      ],
      "name": "allowance",
      "outputs": [
        {
          "internalType": "uint256",
          "name": "",
          "type": "uint256"
        }
      ],
      "stateMutability": "view",
      "type": "function"
    },
    {
      "inputs": [
        {
          "internalType": "address",
          "name": "spender",
          "type": "address"
        },
        {
          "internalType": "uint256",
          "name": "amount",
          "type": "uint256"
        }
      ],
      "name": "approve",
      "outputs": [
        {
          "internalType": "bool",
          "name": "",
          "type": "bool"
        }
      ],
      "stateMutability": "nonpayable",
      "type": "function"
    },
    {
      "inputs": [
        {
          "internalType": "address",
          "name": "_token",
          "type": "address"
        },
        {
          "internalType": "address",
          "name": "spender",
          "type": "address"
        },
        {
          "internalType": "uint256",
          "name": "amount",
          "type": "uint256"
        }
      ],
      "name": "approveTokenSpend",
      "outputs": [
        {
          "internalType": "bool",
          "name": "",
          "type": "bool"
        }
      ],
      "stateMutability": "nonpayable",
      "type": "function"
    },
    {
      "inputs": [
        {
          "internalType": "address",
          "name": "_address",
          "type": "address"
        },
        {
          "internalType": "uint256",
          "name": "jobId",
          "type": "uint256"
        }
      ],
      "name": "assignJob",
      "outputs": [],
      "stateMutability": "nonpayable",
      "type": "function"
    },
    {
      "inputs": [
        {
          "internalType": "address",
          "name": "account",
          "type": "address"
        }
      ],
      "name": "balanceOf",
      "outputs": [
        {
          "internalType": "uint256",
          "name": "",
          "type": "uint256"
        }
      ],
      "stateMutability": "view",
      "type": "function"
    },
    {
      "inputs": [
        {
          "internalType": "address",
          "name": "_address",
          "type": "address"
        },
        {
          "internalType": "address",
          "name": "_token",
          "type": "address"
        }
      ],
      "name": "balanceOf",
      "outputs": [
        {
          "internalType": "uint256",
          "name": "",
          "type": "uint256"
        }
      ],
      "stateMutability": "view",
      "type": "function"
    },
    {
      "inputs": [
        {
          "internalType": "uint256",
          "name": "_jobId",
          "type": "uint256"
        }
      ],
      "name": "completeJob",
      "outputs": [],
      "stateMutability": "payable",
      "type": "function"
    },
    {
      "inputs": [
        {
          "internalType": "address",
          "name": "_address",
          "type": "address"
        },
        {
          "components": [
            {
              "internalType": "uint256",
              "name": "id",
              "type": "uint256"
            },
            {
              "internalType": "bool",
              "name": "isFreelancer",
              "type": "bool"
            },
            {
              "internalType": "bool",
              "name": "active",
              "type": "bool"
            },
            {
              "internalType": "string",
              "name": "mainSkills",
              "type": "string"
            },
            {
              "internalType": "uint256[]",
              "name": "skillsId",
              "type": "uint256[]"
            }
          ],
          "internalType": "struct Detasker.Freelance",
          "name": "freelance",
          "type": "tuple"
        }
      ],
      "name": "createFreelance",
      "outputs": [],
      "stateMutability": "nonpayable",
      "type": "function"
    },
    {
      "inputs": [
        {
          "internalType": "address",
          "name": "_address",
          "type": "address"
        },
        {
          "components": [
            {
              "internalType": "bool",
              "name": "hasFunds",
              "type": "bool"
            },
            {
              "internalType": "uint256",
              "name": "id",
              "type": "uint256"
            },
            {
              "internalType": "uint256",
              "name": "profileId",
              "type": "uint256"
            },
            {
              "internalType": "string",
              "name": "title",
              "type": "string"
            },
            {
              "internalType": "string",
              "name": "description",
              "type": "string"
            },
            {
              "internalType": "string[]",
              "name": "documents",
              "type": "string[]"
            },
            {
              "internalType": "address",
              "name": "owner",
              "type": "address"
            },
            {
              "internalType": "address",
              "name": "requester",
              "type": "address"
            },
            {
              "internalType": "uint256",
              "name": "postedDate",
              "type": "uint256"
            },
            {
              "internalType": "uint256",
              "name": "date",
              "type": "uint256"
            },
            {
              "internalType": "uint256",
              "name": "datePaid",
              "type": "uint256"
            },
            {
              "internalType": "string",
              "name": "img",
              "type": "string"
            },
            {
              "internalType": "uint256",
              "name": "requestedPaymentAmount",
              "type": "uint256"
            },
            {
              "internalType": "address",
              "name": "token",
              "type": "address"
            },
            {
              "internalType": "uint256[]",
              "name": "tags",
              "type": "uint256[]"
            },
            {
              "internalType": "bool",
              "name": "publish",
              "type": "bool"
            },
            {
              "internalType": "bool",
              "name": "completed",
              "type": "bool"
            },
            {
              "internalType": "bool",
              "name": "paid",
              "type": "bool"
            },
            {
              "internalType": "bool",
              "name": "assigned",
              "type": "bool"
            },
            {
              "internalType": "uint256",
              "name": "dateCompleted",
              "type": "uint256"
            },
            {
              "internalType": "uint256",
              "name": "datePublished",
              "type": "uint256"
            },
            {
              "internalType": "uint256[]",
              "name": "dispute",
              "type": "uint256[]"
            },
            {
              "internalType": "bool",
              "name": "deleted",
              "type": "bool"
            }
          ],
          "internalType": "struct Detasker.Job",
          "name": "_job",
          "type": "tuple"
        }
      ],
      "name": "createJob",
      "outputs": [],
      "stateMutability": "nonpayable",
      "type": "function"
    },
    {
      "inputs": [
        {
          "internalType": "address",
          "name": "_address",
          "type": "address"
        },
        {
          "components": [
            {
              "internalType": "uint256",
              "name": "id",
              "type": "uint256"
            },
            {
              "internalType": "uint256",
              "name": "profileId",
              "type": "uint256"
            },
            {
              "internalType": "string",
              "name": "skill",
              "type": "string"
            },
            {
              "internalType": "string",
              "name": "skillName",
              "type": "string"
            },
            {
              "internalType": "string",
              "name": "url",
              "type": "string"
            },
            {
              "internalType": "address",
              "name": "user",
              "type": "address"
            }
          ],
          "internalType": "struct Detasker.Skill",
          "name": "_skill",
          "type": "tuple"
        }
      ],
      "name": "createSkill",
      "outputs": [],
      "stateMutability": "nonpayable",
      "type": "function"
    },
    {
      "inputs": [
        {
          "internalType": "address",
          "name": "_address",
          "type": "address"
        },
        {
          "components": [
            {
              "internalType": "string",
              "name": "name",
              "type": "string"
            },
            {
              "internalType": "string",
              "name": "url",
              "type": "string"
            }
          ],
          "internalType": "struct Detasker.Social",
          "name": "_social",
          "type": "tuple"
        }
      ],
      "name": "createSocial",
      "outputs": [],
      "stateMutability": "nonpayable",
      "type": "function"
    },
    {
      "inputs": [
        {
          "internalType": "address",
          "name": "_address",
          "type": "address"
        },
        {
          "components": [
            {
              "internalType": "string",
              "name": "name",
              "type": "string"
            },
            {
              "internalType": "string",
              "name": "email",
              "type": "string"
            },
            {
              "components": [
                {
                  "internalType": "uint256",
                  "name": "id",
                  "type": "uint256"
                },
                {
                  "internalType": "bool",
                  "name": "isFreelancer",
                  "type": "bool"
                },
                {
                  "internalType": "bool",
                  "name": "active",
                  "type": "bool"
                },
                {
                  "internalType": "string",
                  "name": "mainSkills",
                  "type": "string"
                },
                {
                  "internalType": "uint256[]",
                  "name": "skillsId",
                  "type": "uint256[]"
                }
              ],
              "internalType": "struct Detasker.Freelance",
              "name": "freelance",
              "type": "tuple"
            },
            {
              "internalType": "string",
              "name": "image",
              "type": "string"
            },
            {
              "components": [
                {
                  "internalType": "string",
                  "name": "name",
                  "type": "string"
                },
                {
                  "internalType": "string",
                  "name": "url",
                  "type": "string"
                }
              ],
              "internalType": "struct Detasker.Social[]",
              "name": "socials",
              "type": "tuple[]"
            },
            {
              "components": [
                {
                  "internalType": "uint256",
                  "name": "id",
                  "type": "uint256"
                },
                {
                  "internalType": "string",
                  "name": "description",
                  "type": "string"
                },
                {
                  "internalType": "string",
                  "name": "url",
                  "type": "string"
                }
              ],
              "internalType": "struct Detasker.ShowcaseWork[]",
              "name": "showcaseWork",
              "type": "tuple[]"
            },
            {
              "components": [
                {
                  "internalType": "uint256",
                  "name": "id",
                  "type": "uint256"
                },
                {
                  "internalType": "uint256",
                  "name": "profileId",
                  "type": "uint256"
                },
                {
                  "internalType": "string",
                  "name": "skill",
                  "type": "string"
                },
                {
                  "internalType": "string",
                  "name": "skillName",
                  "type": "string"
                },
                {
                  "internalType": "string",
                  "name": "url",
                  "type": "string"
                },
                {
                  "internalType": "address",
                  "name": "user",
                  "type": "address"
                }
              ],
              "internalType": "struct Detasker.Skill[]",
              "name": "skills",
              "type": "tuple[]"
            }
          ],
          "internalType": "struct Detasker.NewProfile",
          "name": "_profile",
          "type": "tuple"
        }
      ],
      "name": "createUser",
      "outputs": [],
      "stateMutability": "nonpayable",
      "type": "function"
    },
    {
      "inputs": [],
      "name": "decimals",
      "outputs": [
        {
          "internalType": "uint8",
          "name": "",
          "type": "uint8"
        }
      ],
      "stateMutability": "view",
      "type": "function"
    },
    {
      "inputs": [
        {
          "internalType": "address",
          "name": "spender",
          "type": "address"
        },
        {
          "internalType": "uint256",
          "name": "subtractedValue",
          "type": "uint256"
        }
      ],
      "name": "decreaseAllowance",
      "outputs": [
        {
          "internalType": "bool",
          "name": "",
          "type": "bool"
        }
      ],
      "stateMutability": "nonpayable",
      "type": "function"
    },
    {
      "inputs": [
        {
          "internalType": "uint256",
          "name": "_days",
          "type": "uint256"
        }
      ],
      "name": "getConformationDays",
      "outputs": [
        {
          "internalType": "uint256",
          "name": "",
          "type": "uint256"
        }
      ],
      "stateMutability": "pure",
      "type": "function"
    },
    {
      "inputs": [],
      "name": "getFreelaneCount",
      "outputs": [
        {
          "internalType": "uint256",
          "name": "",
          "type": "uint256"
        }
      ],
      "stateMutability": "view",
      "type": "function"
    },
    {
      "inputs": [
        {
          "internalType": "uint256",
          "name": "_jobId",
          "type": "uint256"
        }
      ],
      "name": "getJobById",
      "outputs": [
        {
          "components": [
            {
              "internalType": "bool",
              "name": "hasFunds",
              "type": "bool"
            },
            {
              "internalType": "uint256",
              "name": "id",
              "type": "uint256"
            },
            {
              "internalType": "uint256",
              "name": "profileId",
              "type": "uint256"
            },
            {
              "internalType": "string",
              "name": "title",
              "type": "string"
            },
            {
              "internalType": "string",
              "name": "description",
              "type": "string"
            },
            {
              "internalType": "string[]",
              "name": "documents",
              "type": "string[]"
            },
            {
              "internalType": "address",
              "name": "owner",
              "type": "address"
            },
            {
              "internalType": "address",
              "name": "requester",
              "type": "address"
            },
            {
              "internalType": "uint256",
              "name": "postedDate",
              "type": "uint256"
            },
            {
              "internalType": "uint256",
              "name": "date",
              "type": "uint256"
            },
            {
              "internalType": "uint256",
              "name": "datePaid",
              "type": "uint256"
            },
            {
              "internalType": "string",
              "name": "img",
              "type": "string"
            },
            {
              "internalType": "uint256",
              "name": "requestedPaymentAmount",
              "type": "uint256"
            },
            {
              "internalType": "address",
              "name": "token",
              "type": "address"
            },
            {
              "internalType": "uint256[]",
              "name": "tags",
              "type": "uint256[]"
            },
            {
              "internalType": "bool",
              "name": "publish",
              "type": "bool"
            },
            {
              "internalType": "bool",
              "name": "completed",
              "type": "bool"
            },
            {
              "internalType": "bool",
              "name": "paid",
              "type": "bool"
            },
            {
              "internalType": "bool",
              "name": "assigned",
              "type": "bool"
            },
            {
              "internalType": "uint256",
              "name": "dateCompleted",
              "type": "uint256"
            },
            {
              "internalType": "uint256",
              "name": "datePublished",
              "type": "uint256"
            },
            {
              "internalType": "uint256[]",
              "name": "dispute",
              "type": "uint256[]"
            },
            {
              "internalType": "bool",
              "name": "deleted",
              "type": "bool"
            }
          ],
          "internalType": "struct Detasker.Job",
          "name": "",
          "type": "tuple"
        }
      ],
      "stateMutability": "view",
      "type": "function"
    },
    {
      "inputs": [
        {
          "internalType": "uint256",
          "name": "_jobId",
          "type": "uint256"
        },
        {
          "internalType": "address",
          "name": "_address",
          "type": "address"
        }
      ],
      "name": "getJobById",
      "outputs": [
        {
          "components": [
            {
              "internalType": "bool",
              "name": "hasFunds",
              "type": "bool"
            },
            {
              "internalType": "uint256",
              "name": "id",
              "type": "uint256"
            },
            {
              "internalType": "uint256",
              "name": "profileId",
              "type": "uint256"
            },
            {
              "internalType": "string",
              "name": "title",
              "type": "string"
            },
            {
              "internalType": "string",
              "name": "description",
              "type": "string"
            },
            {
              "internalType": "string[]",
              "name": "documents",
              "type": "string[]"
            },
            {
              "internalType": "address",
              "name": "owner",
              "type": "address"
            },
            {
              "internalType": "address",
              "name": "requester",
              "type": "address"
            },
            {
              "internalType": "uint256",
              "name": "postedDate",
              "type": "uint256"
            },
            {
              "internalType": "uint256",
              "name": "date",
              "type": "uint256"
            },
            {
              "internalType": "uint256",
              "name": "datePaid",
              "type": "uint256"
            },
            {
              "internalType": "string",
              "name": "img",
              "type": "string"
            },
            {
              "internalType": "uint256",
              "name": "requestedPaymentAmount",
              "type": "uint256"
            },
            {
              "internalType": "address",
              "name": "token",
              "type": "address"
            },
            {
              "internalType": "uint256[]",
              "name": "tags",
              "type": "uint256[]"
            },
            {
              "internalType": "bool",
              "name": "publish",
              "type": "bool"
            },
            {
              "internalType": "bool",
              "name": "completed",
              "type": "bool"
            },
            {
              "internalType": "bool",
              "name": "paid",
              "type": "bool"
            },
            {
              "internalType": "bool",
              "name": "assigned",
              "type": "bool"
            },
            {
              "internalType": "uint256",
              "name": "dateCompleted",
              "type": "uint256"
            },
            {
              "internalType": "uint256",
              "name": "datePublished",
              "type": "uint256"
            },
            {
              "internalType": "uint256[]",
              "name": "dispute",
              "type": "uint256[]"
            },
            {
              "internalType": "bool",
              "name": "deleted",
              "type": "bool"
            }
          ],
          "internalType": "struct Detasker.Job",
          "name": "",
          "type": "tuple"
        }
      ],
      "stateMutability": "view",
      "type": "function"
    },
    {
      "inputs": [],
      "name": "getJobCount",
      "outputs": [
        {
          "internalType": "uint256",
          "name": "",
          "type": "uint256"
        }
      ],
      "stateMutability": "view",
      "type": "function"
    },
    {
      "inputs": [],
      "name": "getOwner",
      "outputs": [
        {
          "internalType": "address",
          "name": "",
          "type": "address"
        }
      ],
      "stateMutability": "view",
      "type": "function"
    },
    {
      "inputs": [
        {
          "internalType": "address",
          "name": "_address",
          "type": "address"
        }
      ],
      "name": "getRatingsArray",
      "outputs": [
        {
          "components": [
            {
              "internalType": "uint256",
              "name": "id",
              "type": "uint256"
            },
            {
              "internalType": "uint8",
              "name": "rating",
              "type": "uint8"
            },
            {
              "internalType": "string",
              "name": "review",
              "type": "string"
            },
            {
              "internalType": "uint256",
              "name": "jobId",
              "type": "uint256"
            }
          ],
          "internalType": "struct Detasker.Rating[]",
          "name": "",
          "type": "tuple[]"
        }
      ],
      "stateMutability": "view",
      "type": "function"
    },
    {
      "inputs": [
        {
          "internalType": "uint256",
          "name": "i",
          "type": "uint256"
        }
      ],
      "name": "getSkill",
      "outputs": [
        {
          "components": [
            {
              "internalType": "uint256",
              "name": "id",
              "type": "uint256"
            },
            {
              "internalType": "uint256",
              "name": "profileId",
              "type": "uint256"
            },
            {
              "internalType": "string",
              "name": "skill",
              "type": "string"
            },
            {
              "internalType": "string",
              "name": "skillName",
              "type": "string"
            },
            {
              "internalType": "string",
              "name": "url",
              "type": "string"
            },
            {
              "internalType": "address",
              "name": "user",
              "type": "address"
            }
          ],
          "internalType": "struct Detasker.Skill",
          "name": "",
          "type": "tuple"
        }
      ],
      "stateMutability": "view",
      "type": "function"
    },
    {
      "inputs": [],
      "name": "getSkillCount",
      "outputs": [
        {
          "internalType": "uint256",
          "name": "",
          "type": "uint256"
        }
      ],
      "stateMutability": "view",
      "type": "function"
    },
    {
      "inputs": [],
      "name": "getUserCount",
      "outputs": [
        {
          "internalType": "uint256",
          "name": "",
          "type": "uint256"
        }
      ],
      "stateMutability": "view",
      "type": "function"
    },
    {
      "inputs": [
        {
          "internalType": "address",
          "name": "_address",
          "type": "address"
        },
        {
          "components": [
            {
              "internalType": "uint256",
              "name": "id",
              "type": "uint256"
            },
            {
              "internalType": "uint8",
              "name": "rating",
              "type": "uint8"
            },
            {
              "internalType": "string",
              "name": "review",
              "type": "string"
            },
            {
              "internalType": "uint256",
              "name": "jobId",
              "type": "uint256"
            }
          ],
          "internalType": "struct Detasker.Rating",
          "name": "_rating",
          "type": "tuple"
        }
      ],
      "name": "giveFeedback",
      "outputs": [],
      "stateMutability": "nonpayable",
      "type": "function"
    },
    {
      "inputs": [
        {
          "internalType": "address",
          "name": "spender",
          "type": "address"
        },
        {
          "internalType": "uint256",
          "name": "addedValue",
          "type": "uint256"
        }
      ],
      "name": "increaseAllowance",
      "outputs": [
        {
          "internalType": "bool",
          "name": "",
          "type": "bool"
        }
      ],
      "stateMutability": "nonpayable",
      "type": "function"
    },
    {
      "inputs": [],
      "name": "name",
      "outputs": [
        {
          "internalType": "string",
          "name": "",
          "type": "string"
        }
      ],
      "stateMutability": "view",
      "type": "function"
    },
    {
      "inputs": [
        {
          "internalType": "address",
          "name": "_token",
          "type": "address"
        },
        {
          "internalType": "uint256",
          "name": "jobId",
          "type": "uint256"
        }
      ],
      "name": "ownerWithdraw",
      "outputs": [],
      "stateMutability": "payable",
      "type": "function"
    },
    {
      "inputs": [
        {
          "internalType": "uint256",
          "name": "_jobId",
          "type": "uint256"
        }
      ],
      "name": "payForJobByOwner",
      "outputs": [],
      "stateMutability": "payable",
      "type": "function"
    },
    {
      "inputs": [
        {
          "internalType": "address",
          "name": "_address",
          "type": "address"
        },
        {
          "internalType": "uint256",
          "name": "jobId",
          "type": "uint256"
        }
      ],
      "name": "setJobDoneByOwner",
      "outputs": [],
      "stateMutability": "nonpayable",
      "type": "function"
    },
    {
      "inputs": [
        {
          "internalType": "address",
          "name": "_address",
          "type": "address"
        },
        {
          "internalType": "uint256",
          "name": "jobId",
          "type": "uint256"
        }
      ],
      "name": "setJobDoneByRequester",
      "outputs": [],
      "stateMutability": "nonpayable",
      "type": "function"
    },
    {
      "inputs": [],
      "name": "symbol",
      "outputs": [
        {
          "internalType": "string",
          "name": "",
          "type": "string"
        }
      ],
      "stateMutability": "view",
      "type": "function"
    },
    {
      "inputs": [],
      "name": "timeForConformation",
      "outputs": [
        {
          "internalType": "uint256",
          "name": "",
          "type": "uint256"
        }
      ],
      "stateMutability": "view",
      "type": "function"
    },
    {
      "inputs": [],
      "name": "totalSupply",
      "outputs": [
        {
          "internalType": "uint256",
          "name": "",
          "type": "uint256"
        }
      ],
      "stateMutability": "view",
      "type": "function"
    },
    {
      "inputs": [
        {
          "internalType": "address",
          "name": "to",
          "type": "address"
        },
        {
          "internalType": "uint256",
          "name": "amount",
          "type": "uint256"
        }
      ],
      "name": "transfer",
      "outputs": [
        {
          "internalType": "bool",
          "name": "",
          "type": "bool"
        }
      ],
      "stateMutability": "nonpayable",
      "type": "function"
    },
    {
      "inputs": [
        {
          "internalType": "address",
          "name": "from",
          "type": "address"
        },
        {
          "internalType": "address",
          "name": "to",
          "type": "address"
        },
        {
          "internalType": "uint256",
          "name": "amount",
          "type": "uint256"
        }
      ],
      "name": "transferFrom",
      "outputs": [
        {
          "internalType": "bool",
          "name": "",
          "type": "bool"
        }
      ],
      "stateMutability": "nonpayable",
      "type": "function"
    },
    {
      "inputs": [
        {
          "internalType": "address",
          "name": "",
          "type": "address"
        }
      ],
      "name": "users",
      "outputs": [
        {
          "internalType": "uint256",
          "name": "id",
          "type": "uint256"
        },
        {
          "internalType": "uint256",
          "name": "freeLanceId",
          "type": "uint256"
        },
        {
          "internalType": "string",
          "name": "name",
          "type": "string"
        },
        {
          "internalType": "string",
          "name": "email",
          "type": "string"
        },
        {
          "internalType": "uint256",
          "name": "signedUp",
          "type": "uint256"
        },
        {
          "internalType": "string",
          "name": "image",
          "type": "string"
        }
      ],
      "stateMutability": "view",
      "type": "function"
    },
    {
      "inputs": [],
      "name": "vars",
      "outputs": [
        {
          "internalType": "address",
          "name": "owner",
          "type": "address"
        },
        {
          "internalType": "uint256",
          "name": "jobCount",
          "type": "uint256"
        },
        {
          "internalType": "uint256",
          "name": "freelanceCount",
          "type": "uint256"
        },
        {
          "internalType": "uint256",
          "name": "ratingCount",
          "type": "uint256"
        },
        {
          "internalType": "uint256",
          "name": "tagCount",
          "type": "uint256"
        },
        {
          "internalType": "uint256",
          "name": "skillCount",
          "type": "uint256"
        },
        {
          "internalType": "uint256",
          "name": "userCount",
          "type": "uint256"
        },
        {
          "internalType": "address",
          "name": "bnbToken",
          "type": "address"
        }
      ],
      "stateMutability": "view",
      "type": "function"
    },
    {
      "stateMutability": "payable",
      "type": "receive"
    }
  ],
  "bytecode": "0x608060405262000010601e620000e7565b6013553480156200002057600080fd5b50604051620048b8380380620048b88339810160408190526200004391620000fe565b604051806040016040528060088152602001672232ba30b9b5b2b960c11b815250604051806040016040528060048152602001636474736b60e01b8152508160039081620000929190620001d5565b506004620000a18282620001d5565b5050600680546001600160a01b039093166001600160a01b0319938416179055506012805490911673ee786a1aa32fc164cca9a28f763fbc835e748129179055620002c7565b6000620000f88262015180620002a1565b92915050565b6000602082840312156200011157600080fd5b81516001600160a01b03811681146200012957600080fd5b9392505050565b634e487b7160e01b600052604160045260246000fd5b600181811c908216806200015b57607f821691505b6020821081036200017c57634e487b7160e01b600052602260045260246000fd5b50919050565b601f821115620001d057600081815260208120601f850160051c81016020861015620001ab5750805b601f850160051c820191505b81811015620001cc57828155600101620001b7565b5050505b505050565b81516001600160401b03811115620001f157620001f162000130565b620002098162000202845462000146565b8462000182565b602080601f831160018114620002415760008415620002285750858301515b600019600386901b1c1916600185901b178555620001cc565b600085815260208120601f198616915b82811015620002725788860151825594840194600190910190840162000251565b5085821015620002915787850151600019600388901b60f8161c191681555b5050505050600190811b01905550565b8082028115828204841417620000f857634e487b7160e01b600052601160045260246000fd5b6145e180620002d76000396000f3fe6080604052600436106102345760003560e01c806395d1d3b01161012e578063b6443916116100ab578063dbfc25121161006f578063dbfc25121461072a578063dd62ed3e1461074a578063e683e0b21461076a578063f0d93af51461077d578063f7888aec1461079d57600080fd5b8063b6443916146106a1578063b770242f146106c1578063bd880fae146106d4578063d1388c7514610701578063d9c88e141461071757600080fd5b8063a7d39dd6116100f2578063a7d39dd614610605578063a87430ba14610625578063a9059cbb14610657578063b02b4a2f14610677578063b5cb15f71461068c57600080fd5b806395d1d3b01461057d57806395d89b411461059d578063a082ff46146105b2578063a1c0d32f146105d2578063a457c2d7146105e557600080fd5b806339509351116101bc5780638412277d116101805780638412277d146104e0578063893d20e8146105005780638a9b2d85146105285780639121ae6d1461053d578063957822e71461055d57600080fd5b8063395093511461041d57806369d7428f1461043d57806370a082311461046a5780637155b4f9146104a05780637bf8d39b146104c057600080fd5b80630e5376d6116102035780630e5376d61461031657806318160ddd1461039f57806323b872dd146103b45780632ed94681146103d4578063313ce5671461040157600080fd5b806305f53b291461027e57806306fdde03146102a2578063095ea7b3146102c45780630b27c9ab146102f457600080fd5b36610279573360009081526005602090815260408083206012546001600160a01b031684526009019091528120805434929061027190849061326c565b925050819055005b600080fd5b34801561028a57600080fd5b506009545b6040519081526020015b60405180910390f35b3480156102ae57600080fd5b506102b76107e7565b60405161029991906132c5565b3480156102d057600080fd5b506102e46102df3660046132f4565b610879565b6040519015158152602001610299565b34801561030057600080fd5b5061031461030f36600461350d565b610893565b005b34801561032257600080fd5b50600654600c54600d54600e54600f54601054601154601254610355976001600160a01b03908116979695949392911688565b604080516001600160a01b03998a16815260208101989098528701959095526060860193909352608085019190915260a084015260c083015290911660e082015261010001610299565b3480156103ab57600080fd5b5060025461028f565b3480156103c057600080fd5b506102e46103cf36600461355a565b6108f0565b3480156103e057600080fd5b506103f46103ef366004613596565b610914565b60405161029991906135b1565b34801561040d57600080fd5b5060405160128152602001610299565b34801561042957600080fd5b506102e46104383660046132f4565b610a42565b34801561044957600080fd5b5061045d610458366004613640565b610a64565b60405161029991906136e9565b34801561047657600080fd5b5061028f610485366004613596565b6001600160a01b031660009081526020819052604090205490565b3480156104ac57600080fd5b506103146104bb3660046132f4565b610f47565b3480156104cc57600080fd5b5061045d6104db3660046138e7565b610f79565b3480156104ec57600080fd5b506102e46104fb36600461355a565b6114c3565b34801561050c57600080fd5b506006546040516001600160a01b039091168152602001610299565b34801561053457600080fd5b50600b5461028f565b34801561054957600080fd5b506103146105583660046139cb565b611542565b34801561056957600080fd5b5061028f610578366004613640565b6116c4565b34801561058957600080fd5b506103146105983660046132f4565b6116d3565b3480156105a957600080fd5b506102b7611756565b3480156105be57600080fd5b506103146105cd366004613d5a565b611765565b6103146105e0366004613640565b611984565b3480156105f157600080fd5b506102e46106003660046132f4565b611ad0565b34801561061157600080fd5b506103146106203660046132f4565b611b4b565b34801561063157600080fd5b50610645610640366004613596565b611b71565b60405161029996959493929190613eb1565b34801561066357600080fd5b506102e46106723660046132f4565b611d3e565b34801561068357600080fd5b5060075461028f565b34801561069857600080fd5b5060115461028f565b3480156106ad57600080fd5b506103146106bc366004613f88565b611d4c565b6103146106cf366004613640565b612044565b3480156106e057600080fd5b506106f46106ef366004613640565b6121ac565b6040516102999190614235565b34801561070d57600080fd5b5061028f60135481565b6103146107253660046132f4565b612400565b34801561073657600080fd5b50610314610745366004614248565b6125cf565b34801561075657600080fd5b5061028f61076536600461428b565b612760565b6103146107783660046132f4565b6127d4565b34801561078957600080fd5b506103146107983660046142b5565b6129a5565b3480156107a957600080fd5b5061028f6107b836600461428b565b6001600160a01b0391821660009081526005602090815260408083209390941682526009909201909152205490565b6060600380546107f690614361565b80601f016020809104026020016040519081016040528092919081815260200182805461082290614361565b801561086f5780601f106108445761010080835404028352916020019161086f565b820191906000526020600020905b81548152906001019060200180831161085257829003601f168201915b5050505050905090565b600033610887818585612b1d565b60019150505b92915050565b6001600160a01b0382166000908152600560209081526040822060040180546001810182559083529120825183926002029091019081906108d490826143e9565b50602082015160018201906108e990826143e9565b5050505050565b6000336108fe858285612c41565b610909858585612cb5565b506001949350505050565b6001600160a01b0381166000908152600560209081526040808320600801805482518185028101850190935280835260609492939192909184015b82821015610a37576000848152602090819020604080516080810182526004860290920180548352600181015460ff16938301939093526002830180549293929184019161099c90614361565b80601f01602080910402602001604051908101604052809291908181526020018280546109c890614361565b8015610a155780601f106109ea57610100808354040283529160200191610a15565b820191906000526020600020905b8154815290600101906020018083116109f857829003601f168201915b505050505081526020016003820154815250508152602001906001019061094f565b505050509050919050565b600033610887818585610a558383612760565b610a5f919061326c565b612b1d565b610a6c613075565b600060066001018381548110610a8457610a846144a8565b9060005260206000209060140201604051806102e00160405290816000820160009054906101000a900460ff161515151581526020016001820154815260200160028201548152602001600382018054610add90614361565b80601f0160208091040260200160405190810160405280929190818152602001828054610b0990614361565b8015610b565780601f10610b2b57610100808354040283529160200191610b56565b820191906000526020600020905b815481529060010190602001808311610b3957829003601f168201915b50505050508152602001600482018054610b6f90614361565b80601f0160208091040260200160405190810160405280929190818152602001828054610b9b90614361565b8015610be85780601f10610bbd57610100808354040283529160200191610be8565b820191906000526020600020905b815481529060010190602001808311610bcb57829003601f168201915b5050505050815260200160058201805480602002602001604051908101604052809291908181526020016000905b82821015610cc2578382906000526020600020018054610c3590614361565b80601f0160208091040260200160405190810160405280929190818152602001828054610c6190614361565b8015610cae5780601f10610c8357610100808354040283529160200191610cae565b820191906000526020600020905b815481529060010190602001808311610c9157829003601f168201915b505050505081526020019060010190610c16565b5050509082525060068201546001600160a01b03908116602083015260078301541660408201526008820154606082015260098201546080820152600a82015460a0820152600b8201805460c090920191610d1c90614361565b80601f0160208091040260200160405190810160405280929190818152602001828054610d4890614361565b8015610d955780601f10610d6a57610100808354040283529160200191610d95565b820191906000526020600020905b815481529060010190602001808311610d7857829003601f168201915b50505050508152602001600c8201548152602001600d820160009054906101000a90046001600160a01b03166001600160a01b03166001600160a01b03168152602001600e8201805480602002602001604051908101604052809291908181526020018280548015610e2657602002820191906000526020600020905b815481526020019060010190808311610e12575b5050509183525050600f82015460ff8082161515602080850191909152610100830482161515604080860191909152620100008404831615156060860152630100000090930490911615156080840152601084015460a0840152601184015460c084015260128401805483518184028101840190945280845260e0909401939091830182828015610ed657602002820191906000526020600020905b815481526020019060010190808311610ec2575b50505091835250506013919091015460ff16151560209182015281015190915061088d5760405162461bcd60e51b815260206004820181905260248201527f556e61626c6520746f206765742061206a6f622077697468207468617420696460448201526064015b60405180910390fd5b6000610f5282610a64565b60016102408201526001600160a01b03841660e08201529050610f7481612e59565b505050565b610f81613075565b600060066001018481548110610f9957610f996144a8565b9060005260206000209060140201604051806102e00160405290816000820160009054906101000a900460ff161515151581526020016001820154815260200160028201548152602001600382018054610ff290614361565b80601f016020809104026020016040519081016040528092919081815260200182805461101e90614361565b801561106b5780601f106110405761010080835404028352916020019161106b565b820191906000526020600020905b81548152906001019060200180831161104e57829003601f168201915b5050505050815260200160048201805461108490614361565b80601f01602080910402602001604051908101604052809291908181526020018280546110b090614361565b80156110fd5780601f106110d2576101008083540402835291602001916110fd565b820191906000526020600020905b8154815290600101906020018083116110e057829003601f168201915b5050505050815260200160058201805480602002602001604051908101604052809291908181526020016000905b828210156111d757838290600052602060002001805461114a90614361565b80601f016020809104026020016040519081016040528092919081815260200182805461117690614361565b80156111c35780601f10611198576101008083540402835291602001916111c3565b820191906000526020600020905b8154815290600101906020018083116111a657829003601f168201915b50505050508152602001906001019061112b565b5050509082525060068201546001600160a01b03908116602083015260078301541660408201526008820154606082015260098201546080820152600a82015460a0820152600b8201805460c09092019161123190614361565b80601f016020809104026020016040519081016040528092919081815260200182805461125d90614361565b80156112aa5780601f1061127f576101008083540402835291602001916112aa565b820191906000526020600020905b81548152906001019060200180831161128d57829003601f168201915b50505050508152602001600c8201548152602001600d820160009054906101000a90046001600160a01b03166001600160a01b03166001600160a01b03168152602001600e820180548060200260200160405190810160405280929190818152602001828054801561133b57602002820191906000526020600020905b815481526020019060010190808311611327575b5050509183525050600f82015460ff8082161515602080850191909152610100830482161515604080860191909152620100008404831615156060860152630100000090930490911615156080840152601084015460a0840152601184015460c084015260128401805483518184028101840190945280845260e09094019390918301828280156113eb57602002820191906000526020600020905b8154815260200190600101908083116113d7575b50505091835250506013919091015460ff1615156020918201528101519091506114575760405162461bcd60e51b815260206004820181905260248201527f556e61626c6520746f206765742061206a6f62207769746820746861742069646044820152606401610f3e565b826001600160a01b03168160c001516001600160a01b0316146114bc5760405162461bcd60e51b815260206004820152601c60248201527f546869732069736e277420796f75722061737369676e6564206a6f62000000006044820152606401610f3e565b9392505050565b60405163095ea7b360e01b81526001600160a01b038381166004830152602482018390526000919085169063095ea7b3906044016020604051808303816000875af1158015611516573d6000803e3d6000fd5b505050506040513d601f19601f8201168201806040525081019061153a91906144be565b949350505050565b60095460009061155390600161326c565b6001600160a01b038416600081815260056020908152604090912083865280549186019190915260a08501919091526001808201549293509091600b91611599916144db565b815481106115a9576115a96144a8565b600091825260208083206004929092029091016003018054600180820183559184528284200185905560098054918201815590925284517f6e1540171b6c0c960b71a7020d9f60077f6af931a8bbf590da0223dacf75c7af6006909302928301908155908501517f6e1540171b6c0c960b71a7020d9f60077f6af931a8bbf590da0223dacf75c7b0830155604085015185927f6e1540171b6c0c960b71a7020d9f60077f6af931a8bbf590da0223dacf75c7b1019061166890826143e9565b506060820151600382019061167d90826143e9565b506080820151600482019061169290826143e9565b5060a09190910151600590910180546001600160a01b0319166001600160a01b03909216919091179055506010555050565b600061088d82620151806144ee565b60006116de82610a64565b9050826001600160a01b03168160e001516001600160a01b03161461173e5760405162461bcd60e51b81526020600482015260166024820152752cb7ba903237b713ba1037bbb7103a3434b9903537b160511b6044820152606401610f3e565b600161020082015242610260820152610f7481612e59565b6060600480546107f690614361565b60016006600b01600082825461177b919061326c565b90915550506011546001600160a01b038316600090815260056020526040902081815582516002909101906117b090826143e9565b506020808301516001600160a01b038516600090815260059092526040909120600201906117de90826143e9565b506001600160a01b03831660009081526005602081905260409091204291810191909155606083015160069091019061181790826143e9565b506118268383604001516125cf565b60c082015151156118d35760005b8260c00151518110156118d157306001600160a01b0316639121ae6d858560c001518481518110611867576118676144a8565b60200260200101516040518363ffffffff1660e01b815260040161188c929190614505565b600060405180830381600087803b1580156118a657600080fd5b505af11580156118ba573d6000803e3d6000fd5b5050505080806118c990614529565b915050611834565b505b60808201515115610f745760005b82608001515181101561197e57306001600160a01b0316630b27c9ab8585608001518481518110611914576119146144a8565b60200260200101516040518363ffffffff1660e01b8152600401611939929190614542565b600060405180830381600087803b15801561195357600080fd5b505af1158015611967573d6000803e3d6000fd5b50505050808061197690614529565b9150506118e1565b50505050565b600061198f82610a64565b60e08101519091506001600160a01b03167381e70aaf7475aaba6d919e3a889b6d94c792c8a314611a3d5760405162461bcd60e51b815260206004820152604c60248201527f536f7272792c20796f7572206e6f7420616c6c6f77656420746f20776974686460448201527f7261772066756e64732e204f6e6c7920746865206a6f6220726571756573746560648201526b1c881a5cc8185b1b1bddd95960a21b608482015260a401610f3e565b8061018001513410611a69576001610220820181905261020082015242610140820152611a6981612e59565b60c081015160e0820151610180830151604080516001600160a01b03948516815293909216602084015290820152600160608201527ff0df160ccfdc4d85bea09bf3ea667729d9e0c9126b24d28eef8b06e5fe027f2f906080015b60405180910390a15050565b60003381611ade8286612760565b905083811015611b3e5760405162461bcd60e51b815260206004820152602560248201527f45524332303a2064656372656173656420616c6c6f77616e63652062656c6f77604482015264207a65726f60d81b6064820152608401610f3e565b6109098286868403612b1d565b6000611b578284610f79565b6001610200820152426102608201529050610f7481612e59565b60056020526000908152604090208054600182015460028301805492939192611b9990614361565b80601f0160208091040260200160405190810160405280929190818152602001828054611bc590614361565b8015611c125780601f10611be757610100808354040283529160200191611c12565b820191906000526020600020905b815481529060010190602001808311611bf557829003601f168201915b505050505090806003018054611c2790614361565b80601f0160208091040260200160405190810160405280929190818152602001828054611c5390614361565b8015611ca05780601f10611c7557610100808354040283529160200191611ca0565b820191906000526020600020905b815481529060010190602001808311611c8357829003601f168201915b505050505090806005015490806006018054611cbb90614361565b80601f0160208091040260200160405190810160405280929190818152602001828054611ce790614361565b8015611d345780601f10611d0957610100808354040283529160200191611d34565b820191906000526020600020905b815481529060010190602001808311611d1757829003601f168201915b5050505050905086565b600033610887818585612cb5565b600754600090611d5d90600161326c565b6001600160a01b0384166000818152600560208181526040808420805491890191825288830187815260c08a01969096528489526102008901859052610220890185905261024089018590526102c089018590529282526007928301805460018082018355918652928520909201869055825491820183559190925285517fa66cc928b5edb82af9bd49922954155ab7b0942694bea4ce44661d9a8736c6886014909302928301805460ff191691151591909117815592517fa66cc928b5edb82af9bd49922954155ab7b0942694bea4ce44661d9a8736c689830155517fa66cc928b5edb82af9bd49922954155ab7b0942694bea4ce44661d9a8736c68a820155606085015192935084927fa66cc928b5edb82af9bd49922954155ab7b0942694bea4ce44661d9a8736c68b90910190611e9790826143e9565b5060808201516004820190611eac90826143e9565b5060a08201518051611ec891600584019160209091019061314a565b5060c08201516006820180546001600160a01b039283166001600160a01b03199182161790915560e084015160078401805491909316911617905561010082015160088201556101208201516009820155610140820151600a820155610160820151600b820190611f3990826143e9565b50610180820151600c8201556101a0820151600d820180546001600160a01b0319166001600160a01b039092169190911790556101c08201518051611f8891600e8401916020909101906131a0565b506101e0820151600f82018054610200850151610220860151610240870151151563010000000263ff0000001991151562010000029190911663ffff0000199215156101000261ff00199615159690961661ffff1990941693909317949094171617919091179055610260820151601082015561028082015160118201556102a082015180516120229160128401916020909101906131a0565b506102c091909101516013909101805460ff1916911515919091179055505050565b600061204f82610a64565b9050806102200151156120a45760405162461bcd60e51b815260206004820152601d60248201527f54686973206a6f622068617320616c72656164206265656e20706169640000006044820152606401610f3e565b8061020001511561210d5760405162461bcd60e51b815260206004820152602d60248201527f7761697420666f72207468652061737369676e656520746f20636f6e6669726d60448201526c20636f6d706c6574656e65737360981b6064820152608401610f3e565b60c08101516001600160a01b031633146121625760405162461bcd60e51b81526020600482015260166024820152752cb7ba903237b713ba1037bbb7103a3434b9903537b160511b6044820152606401610f3e565b612171816101a0015183612400565b610180810151604080519182524260208301527f181c311d67d2e4613578d57c5d9b50bf646716d62b0bfc741fbd0f76f40b28fe9101611ac4565b6121ee6040518060c00160405280600081526020016000815260200160608152602001606081526020016060815260200160006001600160a01b031681525090565b6009805483908110612202576122026144a8565b90600052602060002090600602016040518060c0016040529081600082015481526020016001820154815260200160028201805461223f90614361565b80601f016020809104026020016040519081016040528092919081815260200182805461226b90614361565b80156122b85780601f1061228d576101008083540402835291602001916122b8565b820191906000526020600020905b81548152906001019060200180831161229b57829003601f168201915b505050505081526020016003820180546122d190614361565b80601f01602080910402602001604051908101604052809291908181526020018280546122fd90614361565b801561234a5780601f1061231f5761010080835404028352916020019161234a565b820191906000526020600020905b81548152906001019060200180831161232d57829003601f168201915b5050505050815260200160048201805461236390614361565b80601f016020809104026020016040519081016040528092919081815260200182805461238f90614361565b80156123dc5780601f106123b1576101008083540402835291602001916123dc565b820191906000526020600020905b8154815290600101906020018083116123bf57829003601f168201915b5050509183525050600591909101546001600160a01b031660209091015292915050565b600061240b82610a64565b60c0810151604051636eb1769f60e11b81523060048201526001600160a01b03918216602482015291925034919085169063dd62ed3e90604401602060405180830381865afa158015612462573d6000803e3d6000fd5b505050506040513d601f19601f820116820180604052508101906124869190614592565b106124f15760405162461bcd60e51b815260206004820152603560248201527f416d6f756e7420617070726f766564206973206c657373207468656e20746f6b604482015274195b881d1c985b9cd9995c9c995908185b5bdd5b9d605a1b6064820152608401610f3e565b8061018001513410610f745760c08101516040516323b872dd60e01b81523060048201526001600160a01b039182166024820152346044820152908416906323b872dd906064016020604051808303816000875af1158015612557573d6000803e3d6000fd5b505050506040513d601f19601f8201168201806040525081019061257b91906144be565b503360009081526005602090815260408083206001600160a01b0387168452600901909152812080543492906125b29084906144db565b9091555050600161022082015242610140820152610f7481612e59565b6001600160a01b038216600090815260056020526040902060010154156126465760405162461bcd60e51b815260206004820152602560248201527f506c6561736520676f207468726f7567682074686520757064617465206d657460448201526403437b217160dd1b6064820152608401610f3e565b600b5460009061265790600161326c565b808352600b8054600181018255600091909152835160049091027f0175b7a638427703f0dbe7bb9bbf987a2551717b34e79f33b5b1008d1fa01db9810191825560208501517f0175b7a638427703f0dbe7bb9bbf987a2551717b34e79f33b5b1008d1fa01dba82018054604088015115156101000261ff00199315159390931661ffff1990911617919091179055606085015192935084927f0175b7a638427703f0dbe7bb9bbf987a2551717b34e79f33b5b1008d1fa01dbb9091019061271e90826143e9565b506080820151805161273a9160038401916020909101906131a0565b5050506001600160a01b0390921660009081526005602052604090206001019190915550565b604051636eb1769f60e11b81523060048201526001600160a01b0383811660248301526000919083169063dd62ed3e90604401602060405180830381865afa1580156127b0573d6000803e3d6000fd5b505050506040513d601f19601f820116820180604052508101906114bc9190614592565b60006127e08233610f79565b604051636eb1769f60e11b815233600482015230602482015290915034906001600160a01b0385169063dd62ed3e90604401602060405180830381865afa15801561282f573d6000803e3d6000fd5b505050506040513d601f19601f820116820180604052508101906128539190614592565b106128d05760405162461bcd60e51b815260206004820152604160248201527f416d6f756e7420617070726f766564206973206c657373207468656e20746f6b60448201527f656e207472616e7366657272656420616d6f756e7420746f20636f6e747261636064820152601d60fa1b608482015260a401610f3e565b8061018001513410610f745760405163a9059cbb60e01b81523060048201523460248201526001600160a01b0384169063a9059cbb906044016020604051808303816000875af1158015612928573d6000803e3d6000fd5b505050506040513d601f19601f8201168201806040525081019061294c91906144be565b503360009081526005602090815260408083206001600160a01b03871684526009019091528120805434929061298390849061326c565b90915550506001600160a01b0383166101a082015260018152610f7481612e59565b60006129bb6001836060015161045891906144db565b9050826001600160a01b03168160c001516001600160a01b031614612a225760405162461bcd60e51b815260206004820152601c60248201527f546869732069736e277420796f75722061737369676e6564206a6f62000000006044820152606401610f3e565b6005826020015160ff161115612a895760405162461bcd60e51b815260206004820152602660248201527f506c6561736520676976652074686973206a6f62206120726174696e67206f7560448201526574206f66203560d01b6064820152608401610f3e565b600854600090612a9a90600161326c565b80845260e08301516001600160a01b0316600090815260056020908152604080832060080180546001808201835591855293839020885160049095020193845591870151918301805460ff191660ff9093169290921790915585015191925084916002820190612b0a90826143e9565b5060608201518160030155505050505050565b6001600160a01b038316612b7f5760405162461bcd60e51b8152602060048201526024808201527f45524332303a20617070726f76652066726f6d20746865207a65726f206164646044820152637265737360e01b6064820152608401610f3e565b6001600160a01b038216612be05760405162461bcd60e51b815260206004820152602260248201527f45524332303a20617070726f766520746f20746865207a65726f206164647265604482015261737360f01b6064820152608401610f3e565b6001600160a01b0383811660008181526001602090815260408083209487168084529482529182902085905590518481527f8c5be1e5ebec7d5bd14f71427d1e84f3dd0314c0f7b2291e5b200ac8c7c3b925910160405180910390a3505050565b6000612c4d8484612760565b9050600019811461197e5781811015612ca85760405162461bcd60e51b815260206004820152601d60248201527f45524332303a20696e73756666696369656e7420616c6c6f77616e63650000006044820152606401610f3e565b61197e8484848403612b1d565b6001600160a01b038316612d195760405162461bcd60e51b815260206004820152602560248201527f45524332303a207472616e736665722066726f6d20746865207a65726f206164604482015264647265737360d81b6064820152608401610f3e565b6001600160a01b038216612d7b5760405162461bcd60e51b815260206004820152602360248201527f45524332303a207472616e7366657220746f20746865207a65726f206164647260448201526265737360e81b6064820152608401610f3e565b6001600160a01b03831660009081526020819052604090205481811015612df35760405162461bcd60e51b815260206004820152602660248201527f45524332303a207472616e7366657220616d6f756e7420657863656564732062604482015265616c616e636560d01b6064820152608401610f3e565b6001600160a01b03848116600081815260208181526040808320878703905593871680835291849020805487019055925185815290927fddf252ad1be2c89b69c2b068fc378daa952ba7f163c4a11628f55a4df523b3ef910160405180910390a361197e565b80600660010160018360200151612e7091906144db565b81548110612e8057612e806144a8565b6000918252602091829020835160149290920201805460ff19169115159190911781559082015160018201556040820151600282015560608201516003820190612eca90826143e9565b5060808201516004820190612edf90826143e9565b5060a08201518051612efb91600584019160209091019061314a565b5060c08201516006820180546001600160a01b039283166001600160a01b03199182161790915560e084015160078401805491909316911617905561010082015160088201556101208201516009820155610140820151600a820155610160820151600b820190612f6c90826143e9565b50610180820151600c8201556101a0820151600d820180546001600160a01b0319166001600160a01b039092169190911790556101c08201518051612fbb91600e8401916020909101906131a0565b506101e0820151600f82018054610200850151610220860151610240870151151563010000000263ff0000001991151562010000029190911663ffff0000199215156101000261ff00199615159690961661ffff1990941693909317949094171617919091179055610260820151601082015561028082015160118201556102a082015180516130559160128401916020909101906131a0565b506102c091909101516013909101805460ff191691151591909117905550565b604051806102e00160405280600015158152602001600081526020016000815260200160608152602001606081526020016060815260200160006001600160a01b0316815260200160006001600160a01b03168152602001600081526020016000815260200160008152602001606081526020016000815260200160006001600160a01b03168152602001606081526020016000151581526020016000151581526020016000151581526020016000151581526020016000815260200160008152602001606081526020016000151581525090565b828054828255906000526020600020908101928215613190579160200282015b82811115613190578251829061318090826143e9565b509160200191906001019061316a565b5061319c9291506131e7565b5090565b8280548282559060005260206000209081019282156131db579160200282015b828111156131db5782518255916020019190600101906131c0565b5061319c929150613204565b8082111561319c5760006131fb8282613219565b506001016131e7565b5b8082111561319c5760008155600101613205565b50805461322590614361565b6000825580601f10613235575050565b601f0160209004906000526020600020908101906132539190613204565b50565b634e487b7160e01b600052601160045260246000fd5b8082018082111561088d5761088d613256565b6000815180845260005b818110156132a557602081850181015186830182015201613289565b506000602082860101526020601f19601f83011685010191505092915050565b6020815260006114bc602083018461327f565b80356001600160a01b03811681146132ef57600080fd5b919050565b6000806040838503121561330757600080fd5b613310836132d8565b946020939093013593505050565b634e487b7160e01b600052604160045260246000fd5b60405160c081016001600160401b03811182821017156133565761335661331e565b60405290565b604051606081016001600160401b03811182821017156133565761335661331e565b60405160e081016001600160401b03811182821017156133565761335661331e565b6040516102e081016001600160401b03811182821017156133565761335661331e565b604051608081016001600160401b03811182821017156133565761335661331e565b604051601f8201601f191681016001600160401b038111828210171561340d5761340d61331e565b604052919050565b600082601f83011261342657600080fd5b81356001600160401b0381111561343f5761343f61331e565b613452601f8201601f19166020016133e5565b81815284602083860101111561346757600080fd5b816020850160208301376000918101602001919091529392505050565b60006040828403121561349657600080fd5b604051604081016001600160401b0382821081831117156134b9576134b961331e565b8160405282935084359150808211156134d157600080fd5b6134dd86838701613415565b835260208501359150808211156134f357600080fd5b5061350085828601613415565b6020830152505092915050565b6000806040838503121561352057600080fd5b613529836132d8565b915060208301356001600160401b0381111561354457600080fd5b61355085828601613484565b9150509250929050565b60008060006060848603121561356f57600080fd5b613578846132d8565b9250613586602085016132d8565b9150604084013590509250925092565b6000602082840312156135a857600080fd5b6114bc826132d8565b60006020808301818452808551808352604092508286019150828160051b87010184880160005b8381101561363257603f19898403018552815160808151855260ff8983015116898601528782015181898701526136118287018261327f565b606093840151969093019590955250948701949250908601906001016135d8565b509098975050505050505050565b60006020828403121561365257600080fd5b5035919050565b600081518084526020808501808196508360051b8101915082860160005b858110156136a157828403895261368f84835161327f565b98850198935090840190600101613677565b5091979650505050505050565b600081518084526020808501945080840160005b838110156136de578151875295820195908201906001016136c2565b509495945050505050565b602081526136fc60208201835115159052565b6020820151604082015260408201516060820152600060608301516102e080608085015261372e61030085018361327f565b91506080850151601f19808685030160a087015261374c848361327f565b935060a08701519150808685030160c08701526137698483613659565b935060c0870151915061378760e08701836001600160a01b03169052565b60e087015191506101006137a5818801846001600160a01b03169052565b8701516101208781019190915287015161014080880191909152870151610160808801919091528701518685038201610180808901919091529092506137eb858461327f565b908801516101a08881019190915288015190945091506101c0613818818801846001600160a01b03169052565b808801519250506101e081878603018188015261383585846136ae565b94508088015192505061020061384e8188018415159052565b87015191506102206138638782018415159052565b87015191506102406138788782018415159052565b870151915061026061388d8782018415159052565b870151610280878101919091528701516102a08088019190915287015186850382016102c0808901919091529092506138c685846136ae565b945080880151925050506138dd8286018215159052565b5090949350505050565b600080604083850312156138fa57600080fd5b8235915061390a602084016132d8565b90509250929050565b600060c0828403121561392557600080fd5b61392d613334565b9050813581526020820135602082015260408201356001600160401b038082111561395757600080fd5b61396385838601613415565b6040840152606084013591508082111561397c57600080fd5b61398885838601613415565b606084015260808401359150808211156139a157600080fd5b506139ae84828501613415565b6080830152506139c060a083016132d8565b60a082015292915050565b600080604083850312156139de57600080fd5b6139e7836132d8565b915060208301356001600160401b03811115613a0257600080fd5b61355085828601613913565b801515811461325357600080fd5b80356132ef81613a0e565b60006001600160401b03821115613a4057613a4061331e565b5060051b60200190565b600082601f830112613a5b57600080fd5b81356020613a70613a6b83613a27565b6133e5565b82815260059290921b84018101918181019086841115613a8f57600080fd5b8286015b84811015613aaa5780358352918301918301613a93565b509695505050505050565b600060a08284031215613ac757600080fd5b60405160a081016001600160401b038282108183111715613aea57613aea61331e565b816040528293508435835260208501359150613b0582613a0e565b81602084015260408501359150613b1b82613a0e565b8160408401526060850135915080821115613b3557600080fd5b613b4186838701613415565b60608401526080850135915080821115613b5a57600080fd5b50613b6785828601613a4a565b6080830152505092915050565b600082601f830112613b8557600080fd5b81356020613b95613a6b83613a27565b82815260059290921b84018101918181019086841115613bb457600080fd5b8286015b84811015613aaa5780356001600160401b03811115613bd75760008081fd5b613be58986838b0101613484565b845250918301918301613bb8565b600082601f830112613c0457600080fd5b81356020613c14613a6b83613a27565b82815260059290921b84018101918181019086841115613c3357600080fd5b8286015b84811015613aaa5780356001600160401b0380821115613c575760008081fd5b908801906060828b03601f1901811315613c715760008081fd5b613c7961335c565b87840135815260408085013584811115613c935760008081fd5b613ca18e8b83890101613415565b838b015250918401359183831115613cb95760008081fd5b613cc78d8a85880101613415565b908201528652505050918301918301613c37565b600082601f830112613cec57600080fd5b81356020613cfc613a6b83613a27565b82815260059290921b84018101918181019086841115613d1b57600080fd5b8286015b84811015613aaa5780356001600160401b03811115613d3e5760008081fd5b613d4c8986838b0101613913565b845250918301918301613d1f565b60008060408385031215613d6d57600080fd5b613d76836132d8565b915060208301356001600160401b0380821115613d9257600080fd5b9084019060e08287031215613da657600080fd5b613dae61337e565b823582811115613dbd57600080fd5b613dc988828601613415565b825250602083013582811115613dde57600080fd5b613dea88828601613415565b602083015250604083013582811115613e0257600080fd5b613e0e88828601613ab5565b604083015250606083013582811115613e2657600080fd5b613e3288828601613415565b606083015250608083013582811115613e4a57600080fd5b613e5688828601613b74565b60808301525060a083013582811115613e6e57600080fd5b613e7a88828601613bf3565b60a08301525060c083013582811115613e9257600080fd5b613e9e88828601613cdb565b60c0830152508093505050509250929050565b86815285602082015260c060408201526000613ed060c083018761327f565b8281036060840152613ee2818761327f565b905084608084015282810360a0840152613efc818561327f565b9998505050505050505050565b600082601f830112613f1a57600080fd5b81356020613f2a613a6b83613a27565b82815260059290921b84018101918181019086841115613f4957600080fd5b8286015b84811015613aaa5780356001600160401b03811115613f6c5760008081fd5b613f7a8986838b0101613415565b845250918301918301613f4d565b60008060408385031215613f9b57600080fd5b613fa4836132d8565b915060208301356001600160401b0380821115613fc057600080fd5b908401906102e08287031215613fd557600080fd5b613fdd6133a0565b613fe683613a1c565b8152602083013560208201526040830135604082015260608301358281111561400e57600080fd5b61401a88828601613415565b60608301525060808301358281111561403257600080fd5b61403e88828601613415565b60808301525060a08301358281111561405657600080fd5b61406288828601613f09565b60a08301525061407460c084016132d8565b60c082015261408560e084016132d8565b60e082015261010083810135908201526101208084013590820152610140808401359082015261016080840135838111156140bf57600080fd5b6140cb89828701613415565b8284015250506101808084013581830152506101a06140eb8185016132d8565b908201526101c0838101358381111561410357600080fd5b61410f89828701613a4a565b8284015250506101e0614123818501613a1c565b90820152610200614135848201613a1c565b90820152610220614147848201613a1c565b90820152610240614159848201613a1c565b90820152610260838101359082015261028080840135908201526102a0808401358381111561418757600080fd5b61419389828701613a4a565b8284015250506102c091506141a9828401613a1c565b828201528093505050509250929050565b80518252602081015160208301526000604082015160c060408501526141e360c085018261327f565b9050606083015184820360608601526141fc828261327f565b91505060808301518482036080860152614216828261327f565b60a0948501516001600160a01b03169590940194909452509092915050565b6020815260006114bc60208301846141ba565b6000806040838503121561425b57600080fd5b614264836132d8565b915060208301356001600160401b0381111561427f57600080fd5b61355085828601613ab5565b6000806040838503121561429e57600080fd5b6142a7836132d8565b915061390a602084016132d8565b600080604083850312156142c857600080fd5b6142d1836132d8565b915060208301356001600160401b03808211156142ed57600080fd5b908401906080828703121561430157600080fd5b6143096133c3565b82358152602083013560ff8116811461432157600080fd5b602082015260408301358281111561433857600080fd5b61434488828601613415565b604083015250606083013560608201528093505050509250929050565b600181811c9082168061437557607f821691505b60208210810361439557634e487b7160e01b600052602260045260246000fd5b50919050565b601f821115610f7457600081815260208120601f850160051c810160208610156143c25750805b601f850160051c820191505b818110156143e1578281556001016143ce565b505050505050565b81516001600160401b038111156144025761440261331e565b614416816144108454614361565b8461439b565b602080601f83116001811461444b57600084156144335750858301515b600019600386901b1c1916600185901b1785556143e1565b600085815260208120601f198616915b8281101561447a5788860151825594840194600190910190840161445b565b50858210156144985787850151600019600388901b60f8161c191681555b5050505050600190811b01905550565b634e487b7160e01b600052603260045260246000fd5b6000602082840312156144d057600080fd5b81516114bc81613a0e565b8181038181111561088d5761088d613256565b808202811582820484141761088d5761088d613256565b6001600160a01b038316815260406020820181905260009061153a908301846141ba565b60006001820161453b5761453b613256565b5060010190565b60018060a01b0383168152604060208201526000825160408084015261456b608084018261327f565b90506020840151603f19848303016060850152614588828261327f565b9695505050505050565b6000602082840312156145a457600080fd5b505191905056fea26469706673582212205dc3afe39275451b6e2ea23f5034246ed4fd8c569291518fdbbf50829984d53264736f6c63430008130033",
  "linkReferences": {},
  "deployedLinkReferences": {}
}